:020000040800F2
:10000000C0D101207D04000885040008A531000846
:10001000213500088B0400088D0400080000000052
:100020000000000000000000000000004D03000878
:10003000ED0900080000000005040008690400083C
:100040009704000897040008970400089704000824
:100050009704000897040008970400089704000814
:1000600097040008970400082B0B00089704000869
:1000700097040008970400089704000897040008F4
:1000800097040008970400089704000897040008E4
:1000900097040008970400089704000897040008D4
:1000A00097040008970400089704000897040008C4
:1000B00097040008970400089704000897040008B4
:1000C00097040008970400089704000897040008A4
:1000D0009704000897040008BD3C00089704000836
:1000E000150B0008970400089704000897040008FF
:1000F0009704000897040008970400089704000874
:100100009704000897040008970400089704000863
:100110009704000897040008970400089704000853
:100120009704000897040008970400089704000843
:100130009704000897040008970400089704000833
:100140009704000897040008970400082535000864
:100150009704000897040008970400089704000813
:100160009704000897040008970400089704000803
:100170009704000897040008970400080000000096
:1001800097040008970400089704000897040008E3
:1001900097040008970400089704000897040008D3
:1001A00097040008970400089704000897040008C3
:1001B00097040008970400089704000897040008B3
:1001C000970400089704000800F002F800F069F8AE
:1001D0000AA090E8000C82448344AAF10107DA45A2
:1001E00001D100F05EF8AFF2090EBAE80F0013F08B
:1001F000010F18BFFB1A43F0010318478473000076
:10020000A47300000A444FF0000C10F8013B13F0F7
:10021000070408BF10F8014B1D1108BF10F8015B5F
:10022000641E05D010F8016B641E01F8016BF9D152
:1002300013F0080F1EBF10F8014BAD1C0C1B09D1A9
:100240006D1E58BF01F801CBFAD505E014F8016B1B
:1002500001F8016B6D1EF9D59142D6D370470000AD
:100260000023002400250026103A28BF78C1FBD8BF
:10027000520728BF30C148BF0B6070471FB507F059
:10028000D1F89DE8030000F094FA00F0CAFA0400E7
:100290000020002107F0B0F8401C60601FBD10B5C1
:1002A00010BD00F0F0FA1146FFF7E8FF0FB400F0C0
:1002B0000BF80FBC05F0F4FD00F09DF903B4FFF757
:1002C000EEFF03BC00F0D8FA04B005F025FE0448A8
:1002D000002105F08DFE05F031FE00F08CF90000E4
:1002E0005875000880F309887047EFF3098070475C
:1002F000684680F3098804480078C00714BF0220CC
:10030000032080F31488704718750008DFF818C0C0
:10031000EFF305831B0618BF6047EFF31483DB0779
:1003200008BF604700DF7047B5610008DFF818C0FC
:10033000EFF305831B0618BF6047EFF31483DB0759
:1003400008BF604700DF704729640008EFF30980A9
:10035000816911F8021CE1BB90E80F1010B5E0476D
:10036000BDE81040EFF3098C8CE80700214B93E8BF
:100370000600914208BF704741B91EF0100F16D118
:100380001D49086820F00100086010E01EF0100F01
:1003900006BF2CED108A0120002081F825002CE9F1
:1003A000F00FC1F828C00CB406F0F0FB0CBC1A60CA
:1003B000D2F828C0BCE8F00F92F8250000280EBF44
:1003C0006FF0020E6FF0120EBCEC108A8CF30988ED
:1003D000704710B5094A1268914209D8084C54F880
:1003E000214090E80F10A047EFF3098C8CE80F0034
:1003F00010BD0000BC02012034EF00E06C090008D1
:100400006C09000810B506F085FABDE81040154BE0
:1004100093E80600914208BF7047EFF3098C1EF085
:10042000100F06BF2CED108A0120002081F8250056
:100430002CE9F00FC1F828C00CB406F0A7FB0CBCE7
:100440001A60D2F828C0BCE8F00F92F82500002806
:100450000EBF6FF0020E6FF0120EBCEC108A8CF320
:1004600009887047BC02012010B506F047FCCCE7B4
:1004700010B505F011FE06F041FCC6E709488047BB
:1004800009480047FEE7FEE7FEE7FEE7FEE7FEE776
:10049000FEE7FEE7FEE7FEE704480549054A064B8E
:1004A00070470000FD370008C9010008C091012015
:1004B000C0D10120C0B10120C0B101200048704767
:1004C0005C9101200B3020F0070070472DE9F041CE
:1004D00017460E460446FFF7F5FFA042054633D9FE
:1004E000002F1CBF06F10C0004F06EFF304674684C
:1004F000F4B12168A94217D305F1080291423CBF2B
:100500006168416007D3626861194A602268521BC2
:100510000A6041602560002F1CBF06F10C0004F04A
:1005200079FF201DBDE8F08120466468002CE0D1F1
:100530002946304600F029F90028D7D1002F1CBFEA
:1005400006F10C0004F066FF0020BDE8F08110B554
:10055000044600F011F901682046BDE81040012270
:10056000B4E770B516460D46041F002808BF70BDDD
:10057000002E1CBF05F10C0004F026FF2B46586826
:10058000002818BFA04238BF0346F8D31968CA181C
:10059000A24218BF5C6003D122681C461144196056
:1005A00021680A19824218BF606004D14268626003
:1005B000006808442060002E1CBF05F10C0004F008
:1005C00029FF70BD10B5044600F0D6F8016820463A
:1005D000BDE810400122C4E710B5044600F0C4F89D
:1005E0000068005D000704D5DF2C02D0A4F12000D4
:1005F00010BD204610BD10B50446AFF30080204664
:10060000BDE81040FFF75ABE032A40F2308010F0D8
:10061000030C00F0158011F8013BBCF1020F62449D
:1006200098BF11F801CB00F8013B38BF11F8013B2E
:10063000A2F1040298BF00F801CB38BF00F8013BDB
:1006400011F0030300F02580083AC0F0088051F84B
:10065000043B083A51F804CBA0E80810F5E7121D56
:100660005CBF51F8043B40F8043BAFF30080D20775
:1006700024BF11F8013B11F801CB48BF11F8012B41
:1006800024BF00F8013B00F801CB48BF00F8012B64
:10069000704710B5203AC0F00B80B1E81850203AEE
:1006A000A0E81850B1E81850A0E81850BFF4F5AF12
:1006B0005FEA027C24BFB1E81850A0E8185044BF9C
:1006C00018C918C0BDE810405FEA827C24BF51F809
:1006D000043B40F8043B08BF7047D20728BF31F8FD
:1006E000023B48BF11F8012B28BF20F8023B48BF4E
:1006F00000F8012B704700004FF0013C50F8042B2C
:1007000051F8043B9A4215D1A2EB0C03934313EA30
:10071000CC130BD150F8042B51F8043B9A4209D169
:10072000A2EB0C03934313EACC13E7D04FF0000085
:10073000704700BFD01A01BAB1FA81F101F0180177
:1007400022FA01F0CB40C1F12001DBB2C0B2C01AE5
:100750002CFA01F3D11A914311EAC311E6D1704783
:10076000704770477047000010B500F05AF8001D40
:1007700010BD00BF856C000010B5FFF79FFE08306C
:1007800010BD704770477047704738B504460A4639
:1007900000206946AFF30080002808BF38BD02463C
:1007A0000099204600F042F8012038BD012000F0F9
:1007B0005CB8F8B5AFF30080054600200C46102069
:1007C00000BF0646A819A0420DD93246694600204E
:1007D000AFF30080070008BF00F047F80098A04280
:1007E00018BF0546C419FFF7C7FF05600746F01D8F
:1007F00020F007004619284600F00AF8B44208BF66
:10080000F8BDA21B31463868BDE8F84000F00EB8CC
:1008100000210160C0E901100C3004F0E5BD10209A
:10082000704710B5FFF74AFE203010BD30B40446C3
:100830008C464368002B18BF634538BF1846F8D371
:1008400003681844604507D0C81C20F0070000F179
:10085000040CACEB0100121A2146CCF8002030BC8D
:1008600000220CF10400FFF77CBE10B500F036F852
:10087000BDE8104000F02CB801491820ABBEFEE7DF
:100880002600020070477546FFF718FEAE460500C9
:100890006946534620F00700854618B020B5FFF79B
:1008A000FBFDBDE820404FF000064FF000074FF081
:1008B00000084FF0000B21F00701AC46ACE8C0097E
:1008C000ACE8C009ACE8C009ACE8C0098D46704787
:1008D000002801D0FFF7D0BF7047000010B50128F5
:1008E00005D0002103A000F021F8012010BD09A1CE
:1008F000F8E7000053494752544D454D3A204F7593
:1009000074206F662068656170206D656D6F727907
:10091000000000003A2048656170206D656D6F72BF
:100920007920636F727275707465640070B50546E6
:100930000C460A2000E06D1C00F011F835B1287853
:100940000028F8D102E0641C00F009F814B1207806
:100950000028F8D1BDE870400A20AFF3008008B548
:1009600069468DF800000320ABBE08BD0000000002
:100970000449054A31F8101052F82000002200F016
:10098000D8BB000032740008080001200449054A61
:1009900031F8101052F82000012200F0CABB00000C
:1009A00032740008080001200020704700207047C2
:1009B00005490022054810B503F058FA04490348D8
:1009C00003F04EFA002010BD542E012030240120E7
:1009D000542601200146044810B503F041FA0248AC
:1009E00003F020FA002010BD3024012070470000E1
:1009F0002DE9F041044621B14FF40061C800C4E97B
:100A00000201E0690025002862D028462368D4E965
:100A1000021C3A4F40261A6841EA0C0101433A4051
:100A200041F400701043186020680768012000F04E
:100A3000A1F82068076020684660206846680120A9
:100A400000F098F820684FF6417246602068856093
:100A50002068C56021688869104040F08000886186
:100A600020688669012000F085F82068866120688A
:100A7000C5612068C569012000F07CF82068204B22
:100A80002049C561206800F5805082691A401143F1
:100A90008161206800F580508569012000F06AF8C6
:100AA0002068194900F580508561206800F5805064
:100AB0000160206800F580500568012000F05AF8B8
:100AC000206800F580500560A069012803D009E086
:100AD0004FF480609AE720680C4A00F58050C169A5
:100AE0001143C16160690A4982880A640278D0F8BA
:100AF000010042EA00204864BDE8F0810F8120FF38
:100B0000233FDEF8040020028020C10240000100E3
:100B1000008002404FF4005010B500F00DFABDE81F
:100B200010404FF4004000F007BA102000F004BA63
:100B3000410900F01F02890001F1E0210120D1F8F4
:100B400000119040014201D0012070470020704701
:100B500090F83510022903D08021416501207047AB
:100B6000052180F835100068016821F0010101605D
:100B70000020704731B500F0E1FA044600F0DEFADB
:100B80000099001B8842F9D338BD00002DE9FC47CD
:100B90004FF000060400B146009603D094F84400DC
:100BA00018B107E00120BDE8FC87204684F84560C5
:100BB00000F0E4F86748016841F480410160006892
:100BC00000F4804001906448016821F40001016054
:100BD0000168226A11430160206800F580500168B5
:100BE00041F00101016000F0A9FA4FF4FA770546DF
:100BF00009E000BF00F0A2FA401BB84203D903206D
:100C000084F8440068E0206800F580500068C00760
:100C1000F0D12068006920F01C0501F06DFC4F4AFE
:100C20004F4902448A4202D245F0080516E04D4978
:100C30004D4A0144914202D245F00C050EE04B4A68
:100C40004B4902448A4209D34A4A4B4910448842DC
:100C500002D245F0040501E045F010052068056169
:100C600000214FF40042204600F01AF94FF0010530
:100C7000B0BBFF20FFF77EFF606890B300F05EFA24
:100C8000804641F2883701216A46204600F0C4F8C8
:100C900000F054FAA0EB0800B84217D800984007BB
:100CA000F1D5002120464FF4805200F0F9F8B8B990
:100CB00000F044FA80466A460121204600F0ACF874
:100CC00000F03CFAA0EB0800B8420BD90121204605
:100CD000FFF78EFE84F84450032084F8456062E7F5
:100CE00024E018E000988006E5D510216A462046E9
:100CF00000F092F8D0B90098410703D54FF4006195
:100D0000E16000E0E660800701D5A66019E04FF4DD
:100D10008040A06015E0D4E90210C00840EA51000C
:100D200082B22046002100F0BBF830B101212046FC
:100D3000FFF75EFE84F8445034E740F6FF70FFF79B
:100D400019FF49462046FFF753FE84F8445000201F
:100D500029E70000443802400438014000D3CEFEA9
:100D6000C0E1E40040F1E9FD40787D0100796CFCD0
:100D7000005A6202001F0AFA80F0FA02F0B5006819
:100D800087B01F49884239D11E48016841F000717F
:100D90000160016801F000710591016841F0806116
:100DA0000160016801F080610591016841F0006116
:100DB0000160006802240025694600F0006005908B
:100DC00003260B2732208DE8F1000F4800F0C0F811
:100DD000862069468DE8F1000C4800F0B9F8200340
:100DE00069468DE8F1000A4800F0B2F84FF420504F
:100DF00069468DE8F100074800F0AAF807B0F0BD99
:100E000000800240303802400008024000000240EA
:100E100000040240001802402DE9F047044690F813
:100E20004400914682281DD082224FF6FF7084F83C
:100E300044204FF4F863226803EA8111258A13697C
:100E400000EAC52003F01C031843014321F002000F
:100E500040F00105156100F071F9012706464FF4D5
:100E6000803811E00220BDE8F08700BF00F066F98D
:100E7000801B404506D3002084F8447084F8450068
:100E80000320F0E720680569E807EFD12068406992
:100E900081B2C9F8001084F844700020E3E7000034
:100EA0002DE9F041044690F8440042281ED042202B
:100EB0004FF6FF7384F8440096B220684FF4F86749
:100EC000258A07EA81110269466103EAC520236881
:100ED00002F01C021043014341F003051D6100F0C4
:100EE0002DF9012706464FF4803811E00220BDE8B5
:100EF000F08100BF00F022F9801B404506D300209E
:100F000084F8447084F845000320F0E72068056900
:100F1000E807EFD184F84470E9E70000102804D016
:100F2000B0F5004F04D105F0E1B802490120486056
:100F3000704700006C010120044910B50A680242A4
:100F400002D00860FFF7EAFF10BD0000143C01402A
:100F50002DE9F84FDFF89CE100224FF001084FF037
:100F6000030B4FF00F0A00BF0B6808FA02F423408E
:100F7000A34271D14D68022D01D0122D0FD1D50899
:100F80000E69570700EB8505A9462D6AFF0E0AFA80
:100F900007FCBE4025EA0C052E43C9F820600F79F6
:100FA000550006680BFA05FC07F0030726EA0C0655
:100FB000AF40374307604E68012E05D0022E03D0A4
:100FC000112E01D0122E0ED18668CF6826EA0C06AB
:100FD000AF403743876046680F79A643C7F30017D1
:100FE000974037434760C4688E6824EA0C04AE40DB
:100FF0002643C6604C68E40075D53F4C256845F42F
:1010000080452560246822F00306950704F4804497
:1010100000943A4C2D0F2644D6F80848DFF8E0C07B
:101020000AFA05F7604524EA070401D100272EE0FB
:10103000344FB84201D1012729E0334FB84201D1E2
:10104000022724E0314FB84201D103271FE0304F7F
:10105000B84202D104271AE045E02E4FB84201D130
:10106000052714E02C4FB84201D106270FE02B4F83
:10107000B84201D107270AE0294FB84201D1082719
:1010800005E0284FB84201D1092700E00A27AF4008
:1010900027437546C6F808784E68DEF80040F60328
:1010A00024EA030400D51C43124E2C60361D4D6803
:1010B0003468AD0324EA030400D51C430D4F3460AB
:1010C00008374D683C68ED0224EA030400D51C4350
:1010D000084D3C600C354E682C68B60224EA0304C7
:1010E00000D51C432C60521C102AFFF43DAFBDE814
:1010F000F88F0000003C01404438024000300140BD
:10110000000002400004024000080240000C0240BF
:10111000001002400014024000180240001C02406F
:1011200000200240002402400069084000D0012055
:1011300070470AB1816170470904FBE70148006804
:1011400070470000C4020120032010B500F086F8AB
:10115000002000F005F800F017F8002010BD000096
:10116000084910B504464FF47A700968B1FBF0F0F5
:1011700001F04BFE00222146501E00F04FF80020E7
:1011800010BD0000B0020120032010B500F066F889
:1011900000226FF00B00114600F040F800226FF0C3
:1011A0000A00114600F03AF800226FF009001146DB
:1011B00000F034F80022501F114600F02FF80022F2
:1011C000101F114600F02AF80022901E114600F070
:1011D00025F80022BDE81040501E114600F01EB850
:1011E00000280DDB410900F01F028900012001F1F8
:1011F000E0219040C1F88001BFF34F8FBFF36F8FA4
:101200007047002809DB410900F01F028900012016
:1012100001F1E0219040C1F8000170470E4BF0B49D
:101220001B680D46C3F30223C3F10706042E00D941
:101230000426191D072901D2002300E0DB1E01242A
:1012400004FA06F19C40491E2940641E994014404E
:101250002143F0BC03F0C5BF0CED00E0064900F0EF
:10126000070210B54FF6FF040868044B204040EA1F
:1012700002201843086010BD0CED00E00000FA05E4
:10128000BFF34F8F0548064A016801F4E06111433E
:101290000160BFF34F8F00BFFDE700000CED00E0E1
:1012A0000400FA0501680123C0F8F433002280F835
:1012B000EC238869044A40F000608861486D10435F
:1012C00048650020704700000300001070B5164DFF
:1012D0000446A1B1012911D12068D0F8001E41F0C7
:1012E0000101C0F8001ED4F8FC0303F04EF9206A97
:1012F000002803D0286840F00600286070BD206AEE
:1013000028B102F01DFA286820F006002860206845
:10131000D0F8001E21F00101C0F8001ED4F8FC0333
:10132000BDE8704003F0C1B810ED00E00068416214
:1013300000207047F0B503684FF000005C6A31B1DF
:101340009F6A4D1E4FF4827604EB17440BE044EA8B
:101350000240986210E0471C06EB800053F800C082
:10136000F8B204EB1C44A842F5DB4FF4807000EBAC
:10137000810044EA02421A500020F0BDD0F8FC037C
:1013800002F0D6BFC1EBC10200EB8202D0F8FC0331
:10139000526C02F043BFC1EBC10200EB8202D0F8F5
:1013A000FC03D2F8042202F08EBFD0F8FC0302F056
:1013B000C1BF01F07F030A4610B504460806C3EB1F
:1013C000C30004EB800101D5383101E001F5FC7167
:1013D000D0090B70487094F8B803012809D0012097
:1013E00084F8B803206803F001FB002084F8B803F8
:1013F00010BD022010BD70B50A460446090602F071
:101400007F0005D5C0EBC00104EB8101383105E058
:10141000C2EBC20104EB810101F5FC710025D20988
:101420008D7008704A7094F8B803012809D0012023
:1014300084F8B803206803F0A2FC002084F8B853B5
:1014400070BD022070BD01F00F01C1EBC10100EBC6
:101450008100B0F8100280B2704770B50D460446A6
:1014600005F07F000906C0EBC00104EB810101D546
:10147000383101E001F5FC71ED098A60CB704D70E7
:10148000087000D0C880022B4FF0000500D10D710C
:1014900094F8B803012809D0012084F8B803206823
:1014A00003F0F6F9284684F8B85370BD022070BDE9
:1014B00070B501F07F050C460026C5EBC50100EBB9
:1014C0008101C1F80422C1E9833681F8F96181F80C
:1014D000F85101F5FC710369012B00D10A61620624
:1014E000027C006803D003F0ABFC002070BD03F069
:1014F00087FBFAE770B50D460446090605F07F0044
:1015000005D5C0EBC00104EB8101383105E0C5EB26
:10151000C50104EB810101F5FC710122EB098A7020
:1015200008704B7094F8B803012807D084F8B823EA
:10153000206803F056FC680602D007E0022070BD68
:10154000217C04F56F72206803F0FAFB002084F818
:10155000B80370BD2DE9F04101F07F050C4600266F
:10156000C5EBC501012700EB81014A64C1E91336CF
:1015700081F8397001F8385F0369012B00D10A61E5
:101580006206027C006804D003F05AFC0020BDE82B
:10159000F08103F035FBF9E72DE9F84F04460068C8
:1015A0000026054603F0A1FD00287AD1206803F04B
:1015B000C6FD002875D0206803F0C1FD800702D564
:1015C000216802204861206803F0B9FD01034FF053
:1015D000010A04F56F704FF0080B4FF000090090FE
:1015E00054D5206803F08CFD07464DE0F80749D03C
:1015F0002068F1B203F09BFD8046C00728D005EBC0
:101600004610C0F808AB2169012911D1D0F8102B80
:10161000C6EBC60104EB8100C2F31202D0F800123F
:101620008A1AC0F81022D0F804221144C0F804121B
:101630002046F1B2FFF7AFFE2069012808D13EB97C
:10164000D4F80C0220B920680121009A03F078FB3D
:101650005FEA087006D5204600F00EFB05EB461148
:10166000C1F808BB5FEAC86004D505EB461110203D
:10167000C1F8080B5FEA886004D505EB461020210D
:10168000C0F8081B7F08761C002FAFD1206803F03C
:1016900056FD40035ED5206803F02BFD002607466B
:1016A00056E0F1E1F80751D02068F1B203F02FFDC8
:1016B0008046C00724D0D5F8342805EB46130AFA33
:1016C00006F08243C5F83428C3F808A92069012828
:1016D00007D1C6EBC60004EB8000D0E9102111440D
:1016E00041642046F1B2FFF74DFE2069012807D181
:1016F00036B9E06C20B920680121009A03F020FB84
:101700005FEA087003D505EB4611C1F808B95FEA36
:10171000C86004D505EB46111020C1F808095FEA3E
:10172000486004D505EB46114020C1F808095FEA7E
:10173000887004D505EB46110220C1F808095FEA5C
:10174000086003D53146204601F0F2FE7F08761C82
:10175000002FA7D1206803F0F2FC002810DAD5F89A
:10176000040820F00100C5F8040894F8EC030128EF
:1017700037D0204600F066FA21684FF000404861FB
:10178000206803F0DCFC00050AD5D5F80808C0077E
:1017900002D0204600F08CFA21684FF400604861C6
:1017A000206803F0CCFC000109D521684FF00060EF
:1017B000486194F8EC03D8B1204600F079FA20682B
:1017C00003F0BDFCC0045FD5D5F8040820F001008B
:1017D000C5F804082068102103F056FC0020FF2201
:1017E0001BE00021204684F8EC93FFF76FFDC3E770
:1017F00084F8ECA32068406D0121C0F38300C4F895
:10180000F0032046FFF762FDD9E700BF05EB40116A
:10181000C1F80829C1F8082B401C61688142F5D83D
:101820004FF0FF30C5F81808D5F81C0840F001103B
:10183000C5F81C08206B60B1D5F8840840F00B0097
:10184000C5F88408D5F8440840F00B00C5F84408F2
:101850000BE0D5F8140840F02B00C5F81408D5F8B3
:10186000100840F00B00C5F81008D5F8000820F467
:10187000FE60C5F80008217C2068009A03F060FA39
:1018800021684FF480504861206803F058FC8004C0
:101890007CD5206803F03CF82068C16821F47051C1
:1018A000C160206803F002FC78B10321E1604020B0
:1018B000606100F021FE754A754902448A420AD2ED
:1018C0002068C16841F4705158E0C4F80C904FF49E
:1018D0000071616136E06F4A6F4902448A4204D266
:1018E0002068C16841F4605148E06C4A6C49024488
:1018F0008A4204D22068C16841F450513EE0694AEE
:10190000694902448A4204D22068C16841F44051C6
:1019100034E0664A664902448A4204D22068C168BB
:1019200041F430512AE0634A634902448A4204D2B6
:101930002068C16841F4205120E06049604A0144B8
:10194000914204D22068C16841F4105116E05D4A0A
:101950005D4902448A4204D22068C16841F40051C2
:101960000CE05A4A5A49104488422068C16803D2A0
:1019700041F4E05102E009E041F4C051C160204669
:1019800000F050F921684FF400504861206803F0DE
:10199000D6FBC00637D52068816921F0100181612E
:1019A000D5F8208008F00F01C8F34340C1EBC10116
:1019B000022804EB810707F5FC7702D0062813D034
:1019C0001CE047F6F07118EA010F17D0C8F30A12AD
:1019D000F9689046284603F0B6FBB969F8684144B7
:1019E000B9614044F86009E000990822284603F0F4
:1019F000AAFBB969C8F30A100844B8612068816974
:101A000041F010018161206803F099FB000705D5C2
:101A1000204600F01BF92168C1F814B0206803F0DB
:101A20008EFBC00207D52046F1B200F053F82168C2
:101A30004FF480104861206803F081FB800207D5D5
:101A40002046F1B200F04AF821684FF400104861D6
:101A5000206803F074FB400006D52046FFF78EFC9B
:101A600021684FF080404861206803F068FB400720
:101A70000AD520684568680702D52046FFF795FC1F
:101A80002068416829434160BDE8F88F405327FF33
:101A900000350C00401E1BFF40420F0000DC0BFF16
:101AA000804F1200808CF9FE20D6130060B6E5FE50
:101AB00060E3160000D3CEFE40771B00C05BB3FE90
:101AC000C091210000CA91FE20753800E05459FEF3
:101AD000E09C4100D0F8FC0302F0A0BCD0F8FC036D
:101AE00002F09EBCF0B504004FF000068BB056D05B
:101AF000032084F8B903204600F05CF8206803F066
:101B000079F804F11001684628220F46FEF7C1FD5E
:101B100094E80F0002F016FF2068002103F022FB7A
:101B2000012500223146C6EBC600761C04EB80007E
:101B30000F2E80F8395080F83810C18780F83B208C
:101B400002644264C264EDD300204FF4827300BF8C
:101B5000C0EBC00103EB800604EB810181F8F921A1
:101B600081F8F801C88781F8FB21C1F80022C1F88B
:101B70000422C1F80C2221688A51401C0F28E7D3A7
:101B8000282239466846FEF784FD94E80F0002F0EB
:101B90007DFF606A84F8B953012803D005E0012075
:101BA0000BB0F0BD2046FFF77DFB206802F061FF1F
:101BB0000020F5E730B5006887B0B0F1A04F2AD11A
:101BC0000024164D4FF4007069460294CDE90004DC
:101BD0002846FFF7BDF902214FF4E0500A238DE8B3
:101BE000130003226946CDE903232846FFF7B0F925
:101BF0000B48016841F080010160006800F080003E
:101C0000059007481030016841F480410160006888
:101C100000F48040059007B030BD00000000024095
:101C20003438024010B50446C068012100B90021D3
:101C3000D4F8FC0302F04BFCD4F8FC03BDE81040E0
:101C400002F013BCD0F8FC0302F02FBCD0F8FC0368
:101C500002F031BC10B5044690F8B803012809D051
:101C6000012084F8B803206803F092FA002084F879
:101C7000B80310BD022010BDD0F8FC2300F56F7131
:101C8000104602F037BC10B5044690F8B80301289E
:101C90000CD0012084F8B803206802F0DEFE206832
:101CA00003F0DCF9002084F8B80310BD022010BD59
:101CB00010B50446D0F8FC0302F067FC2068D0F8A9
:101CC000001E41F00101C0F8001E206A002804D067
:101CD0000248016841F00601016010BD10ED00E00E
:101CE0002DE9F84F04460078DFF828844FF000060D
:101CF0003546C0070ED0D8F8001021F40001C8F80E
:101D00000010D8F80010626B1143C8F80010606B27
:101D100000B901262068000310D5FE48E26B84302C
:101D2000016821F4401111430160E06BB0F5801FA0
:101D300001D010B102E0012600E001252068C002B8
:101D400010D5F448226C8430016821F4400111431D
:101D50000160206CB0F5800F01D010B102E00126C7
:101D600000E001252068C10100D50126800659D573
:101D7000E8483830016841F0805101600068DFF8C0
:101D8000989300F080500090D9F8001041F48071D1
:101D9000C9F80010FFF7D2F9074604E0FFF7CEF9C3
:101DA000C01B64287ED8D9F80000C005F6D5D94FED
:101DB0006837386810F4407023D0218E01F44071E8
:101DC00081421ED03868396820F4407041F4803177
:101DD0003960396821F48031396038603868C0076B
:101DE0000FD0FFF7ABF9814641F2883A06E000BF19
:101DF000FFF7A4F9A0EB09015145D3D83868800753
:101E0000F6D5206BC0F3012103297CD0D8F800104F
:101E100021F4F811C8F80010218E3868C1F30B01C5
:101E2000084338602078C00609D5BA488430016874
:101E300021F0807101600168A26B1143016021886B
:101E4000B4488830490405D5626E016821F44031F8
:101E5000114301602188090405D5A26E016821F4AF
:101E60004021114301602168C90305D5E26E016874
:101E700021F44011114301602168890305D5226FC7
:101E8000016821F44001114301602178490605D51C
:101E9000626C016821F00301114301602178090699
:101EA00007D500E001E1A26C016821F00C011143AB
:101EB00001602188C90505D5E26C016821F0300177
:101EC000114301602188890505D5226D016821F043
:101ED000C001114301602188490505D5626D016883
:101EE00021F44071114301602188090505D5A26DD7
:101EF000016821F44061114301602188C90407D5BC
:101F0000E26D016800E023E021F4405111430160DB
:101F10002188890405D5226E016821F440411143CE
:101F200001602168490205D5A26F016821F0806136
:101F3000114301602168890215D5E26F016821F023
:101F4000006111430160E16FB1F1006F0AD00AE056
:101F5000724AD8F80030104023F4F8120243C8F84F
:101F6000002059E7012521680A0700D5012549030A
:101F700005D5626F016821F040711143016021684D
:101F8000090206D5D4F88020016821F08051114360
:101F90000160012E4FF4403B4FF070694FF0E04A72
:101FA00003D02068B0F1007F7ED15A4E083E3068E1
:101FB00020F080603060FFF7C1F8074605E000BF01
:101FC000FFF7BCF8C01B64286FD852480838006877
:101FD0000001F5D42078DFF83CE1C0070EF17C0E5B
:101FE00033D0606B88BBDEF800209BFAABF7DEF8DD
:101FF000000099FAA9FCB7FA87F847F6C07602F410
:102000004032616896FAA6F722FA08F2BCFA8CF818
:10201000B7FA87FC9BFAABF600F0706001FA0CF19E
:10202000B6FA86F699FAA9F720FA08F0B2409AFAB9
:10203000AAFCA668B7FA87F71143B840BCFA8CF23D
:10204000014396403143CEF800102068010303D5C8
:10205000E16BB1F5801F05D0C00241D5206CB0F511
:10206000800F3DD1DEF800009BFAABF7DEF80030C0
:1020700047F6C07600F44030B7FA87FC616896FAFC
:10208000A6F620FA0CF099FAA9FC9BFAABF7BCFA79
:102090008CF8B6FA86F69AFAAAFCB7FA87F7B14036
:1020A000B840BCFA8CFC01E08CE006E1E6689AFAE4
:1020B000AAF203F0E043B2FA82F7164A06FA08F6EB
:1020C00023FA0CF301438432BB4031431943CEF869
:1020D00000101068616A20F01F00491E084310605C
:1020E0002068C00139D5DEF8001099FAA9F0DEF8B1
:1020F000003047F6C0769AFAAAFC9BFAABF796FA3C
:10210000A6F601F07061BCFA8CFCB7FA87F7B0FA5A
:1021100080F005E00838024000700040FFFCFF0F2F
:10212000C1400091B6FA86F8216999FAA9F660686B
:1021300003F0E042B6FA86F6B94000FA08F0084328
:1021400000999AFAAAF722FA0CF2B140B7FA87F688
:102150000843B2401043CEF800002068800120D52B
:1021600047F6C07004F1080190FAA0F260689BFA8B
:10217000ABFCB2FA82F346C9BCFA8CFC984099FADF
:10218000A9F806FA0CF69AFAAAF7B8FA88FC3043CE
:1021900002FA0CF2B7FA87F61043B1400843CEF8C2
:1021A00000007B4E306840F080603060FEF7C6FF74
:1021B000074604E0FEF7C2FFC01B64287DD83068E4
:1021C0000001F7D5002D79D0714D286820F080509E
:1021D0002860FEF7B3FF064605E000BFFEF7AEFF3E
:1021E000801B642869D86A480068C0438000F5D520
:1021F0006748216888300A0301D5E26B1AB1C90229
:102200003CD5216CD1BB02689BFAABF647F6C07196
:10221000B6FA86F7066802F4403291FAA1FC6169C9
:10222000FA4099FAA9F7BCFA8CFC9BFAABF501FAD3
:102230000CF1B7FA87F89AFAAAF7B5FA85FCA569FE
:1022400006F0E04602FA0CF2B7FA87F79AFAAAF318
:10225000FE4011434E4A05FA08F5B3FA83F38C3277
:102260009E402943314301606FF0FF071168A36A64
:1022700021F4F85107EB0323194311602168890207
:1022800035D5E16FB1F1006F31D1016899FAA9F24A
:10229000056847F6C07601F0706196FAA6F7B2FAC3
:1022A00082F29AFAAAF69BFAABFC21FA02F8216AAA
:1022B000B6FA86F6BCFA8CFC01E060E066E0626982
:1022C000B7FA87F701FA0CF199FAA9FCBA4005F0C0
:1022D000E0459AFAAAF3BCFA8CF7F5400A4308FAEB
:1022E00007F1B3FA83F30A439D402A430260217841
:1022F000090736D5016802689BFAABF799FAA9FC81
:1023000047F6C07302F44032214DB7FA87F893FACA
:10231000A3F7636922FA08F2BCFA8CF8B7FA87FCD3
:102320009BFAABF601F0706103FA0CF3B6FA86F68D
:1023300021FA08F199FAA9F7B2409AFAAAFCE669DB
:10234000B7FA87F78C351343B940BCFA8CF20B43CC
:102350009640334303602868E16A20F44030084324
:1023600028600B4C206840F080502060FEF7E6FEAD
:10237000054607E0FEF7E2FE401B642802D9032071
:10238000BDE8F88F2068C0438000F3D40020F7E751
:10239000003802402DE9F047DFF84C8105460E4633
:1023A000D8F8000000F00F00B0420CD2D8F80010AE
:1023B00021F00F013143C8F80010D8F8000000F0F8
:1023C0000F00B04265D12878484C800705D5A96830
:1023D000206820F0F000084320602878C00747D02C
:1023E000424968680839012816D00968022816D0C1
:1023F000890700294DDA216821F00301014321609A
:10240000FEF79CFE6968074641F2883001290FD02B
:102410000229814619D027E009688903E9E7890183
:10242000E7E700BFFEF78AFEC11B494501D918E066
:1024300081462068C0F381000128F3D118E000BF75
:10244000FEF77CFEC11B49450BD82068C0F3810014
:102450000228F5D10CE000BFFEF770FEC11B494514
:1024600002D90320BDE8F087206810F00C0FF3D1EB
:10247000D8F80010404601F00F01B1420BD90168B5
:1024800021F00F0131430160006800F00F00B042FD
:1024900001D00120E6E72878400705D5E9682068E3
:1024A00020F4E050084320602878000706D528690A
:1024B000216821F4604141EAC000206000F052F838
:1024C0002168F02292FAA2F201F0F001B2FA82F24F
:1024D000D140074A515CC840064908600020FEF719
:1024E0003FFE0020BEE70000003C024008380240EA
:1024F00068750008B00201200148006870470000BC
:10250000B002012008484FF4E052016892FAA2F2AA
:10251000064801F4E051B2FA82F2D140044A006860
:10252000515CC8407047000008380240B0020120EA
:102530007875000808484FF46042016892FAA2F2E8
:10254000064801F46041B2FA82F2D140044A0068C0
:10255000515CC8407047000008380240B0020120BA
:10256000787500081D4930B51D48096811F00C0147
:102570001AD04310042916D0082915D1174947F657
:10258000C072091F0C680D6804F03F046D020CD581
:102590000D68B3FBF4F092FAA2F31540B3FA83F29C
:1025A000D54068430BE0184630BD0B68B0FBF4F033
:1025B00092FAA2F41340B4FA84F2D3405843096863
:1025C0004FF4403292FAA2F201F44031B2FA82F2B0
:1025D000D140491C4900B0FBF1F030BD0838024041
:1025E0000024F4002DE9F84FDFF84C9305460078FD
:1025F0000027A9F1040AAAF10404C0074CD0D9F8B5
:1026000000104846C1F38101012908D00068C0F3D9
:10261000810002280AD1DAF80000400206D52068BD
:10262000800339D56868002870D035E06868B0F557
:10263000803F0BD010B1B0F5A02F11D0206820F44E
:1026400080302060206820F4802002E0206840F480
:1026500080302060686890B1FEF770FD06460AE0A1
:10266000206840F480202060F0E700BFFEF766FDA0
:10267000801B642876D820688003F7D50CE0FEF72D
:102680005DFD064605E000BFFEF758FD801B64288F
:10269000F0D820688003F7D42878800746D5D9F889
:1026A000001048464FF0F80811F00C0F08D00068F1
:1026B000C0F3810002280AD1DAF80000400206D4F3
:1026C0002068800716D5E86801281FD112E0E86865
:1026D000002820681BD040F001002060FEF72EFD8E
:1026E000064604E0FEF72AFD801B0228C2D82068B7
:1026F0008007F7D52869226898FAA8F1B1FA81F124
:10270000884022F0F801014321600FE011E120F040
:1027100001002060FEF712FD064604E0FEF70EFD04
:10272000801B0228A6D820688007F7D428780007E5
:1027300029D5814869696C3000298046016812D02A
:1027400041F001010160FEF7F9FC064605E000BF1B
:10275000FEF7F4FC801B022804D8D8F8000080079C
:10276000F6D510E089E021F001010160FEF7E6FCFA
:10277000064604E0FEF7E2FC801B02287DD8D8F86C
:1027800000008007F6D4287840076BD5DFF8A881D1
:1027900008F13808D8F80000C0000BD4D8F80010B1
:1027A00041F08051C8F80010D8F80000012700F06F
:1027B0008050009061480168C90512D401688346C1
:1027C00041F480710160FEF7B9FC064605E000BFE8
:1027D000FEF7B4FC801B64284FD8DBF80000C0056E
:1027E000F6D5554EA868683601280AD008B10528E4
:1027F00011D0306820F001003060306820F0040013
:1028000002E0306840F001003060A868A0B1FEF737
:1028100095FC83460CE0306840F004003060F0E73F
:10282000FEF78CFCA0EB0B0141F28830814278D896
:1028300030688007F4D50EE0FEF780FC834607E0A1
:10284000FEF77CFCA0EB0B0141F28830814268D896
:1028500030688007F4D42FB1D8F8001021F08051EF
:10286000C8F80010A869E8B3D9F80010C1F38101D5
:1028700002295ED00228206800E052E020F080703B
:10288000206003D0FEF75AFC05464DE0FEF756FCEB
:10289000064604E0FEF752FC801B022841D820685F
:1028A0008001F7D447F6C0704FF0FF36D5E9091321
:1028B00090FAA0F24FF44037B2FA82F297FAA7F7F3
:1028C00006EB5303D5E9070691404FF0706CEA6AB6
:1028D000B7FA87F79CFAACF5BB4030431943B5FA19
:1028E00085F300E023E09A400843104340F0005095
:1028F000CAF80000206840F080702060FEF71EFCDF
:10290000054604E0FEF71AFC401B022809D820689F
:102910008001F7D50BE000BFFEF710FC401B02283A
:1029200002D90320BDE8F88F20688001F4D400208C
:10293000F8E70120F6E70000083802400070004088
:1029400090F85D0070472DE9F047040005D094F839
:102950005D000025A56218B107E00120BDE8F08701
:10296000204684F85C5000F051F8022284F85D2083
:102970004FF4E0632068016821F040010160E068E5
:10298000984201D9002101E04FF48051B0F5706FF9
:1029900002D0984200D0A5624FF00109266B2EB9F3
:1029A000984201D9226301E0C4F83090D4E9046868
:1029B000D4E90102278B46EA0806A36A104307F40C
:1029C000007830432668D4E907C240EA080040EAAC
:1029D0000C00CC460427104318433060D4F818800C
:1029E000666B606AE26807EA1847236830433A4337
:1029F0001043084358602068C16921F40061C16137
:102A0000256684F85DC00020A8E700002DE9F041AC
:102A1000006886B0184988422AD11848016841F4F4
:102A200080510160006820260224DFF8548000F401
:102A3000805005900020009605256946CDE90140AB
:102A4000CDE903454046FEF783FA01276946402059
:102A50008DE89100CDE903454046FEF779FACDE9CE
:102A60000064029769460748CDE90345FEF770FA0E
:102A700006B0BDE8F081000000300140443802405B
:102A800000000240000402402DE9F84F044690F88F
:102A90005C0000269846012817460D460DD04FF0E1
:102AA000010A84F85CA0FEF749FB834694F85D00B8
:102AB000B146012804D002267FE00220BDE8F88F4D
:102AC000002D79D0002F77D0A2680321A563A787B6
:102AD00084F85D10C4F86090E787C4F84090A4F8CB
:102AE0004490A4F84690B2F5004FC4F85090C4F852
:102AF0004C9004D12068016841F480410160206855
:102B00000168490603D4016841F040010160E068B2
:102B1000B0F5E06F17D83CE020688168890706D5DA
:102B200035F8021BC160E08F401EE0870BE0B8F172
:102B3000000F2CD0B8F1FF3F05D0FEF7FFFAA0EB55
:102B40000B01414523D2E08F0028E5D124E0206825
:102B5000816889070FD5E18F012905D935F8021B56
:102B6000C160E08F801E04E015F8011B0173E08F47
:102B7000401EE0870DE0B8F1000F08D0B8F1FF3F2C
:102B800007D0FEF7DBFAA0EB0B01414501D303268A
:102B900013E0E08F0028DAD15A464146204600F083
:102BA00012FD08B120202066A06818B92068C1680D
:102BB00080680090206E00B1012684F85DA0304648
:102BC00084F85C907AE700002DE9F05F0D4690F8FC
:102BD0005C10002699460A9F0129924604464FF050
:102BE00001080ED0012084F85C00FEF7A7FA8346A6
:102BF00094F85D00616801280CD0B1F5827F07D19F
:102C000002E00220BDE8F09FA16809B9042801D0C4
:102C10000226E6E0002D79D0BAF1000FFBD0B9F121
:102C2000000FF8D094F85D00042802D0052084F845
:102C30005D00A4F844900020A4F83C904FF4E061BB
:102C4000C4F840A0A563E26820668A42E06420657B
:102C5000A4F84690A4F83E9003D8B4F846000128A2
:102C600004D92068426822F4805203E02068426858
:102C700042F48052426020680268520603D402681F
:102C800042F040020260E068884260683FD910B1BB
:102C9000E08F012832D1216835F8020BC860E08F3F
:102CA000401EE0872AE000BFB8F1000F0DD0E08F92
:102CB00058B120688168890707D535F8022B4FF095
:102CC0000008C260E08F401EE087B4F8460068B19B
:102CD00020688168C90709D0C0684FF001082AF848
:102CE000020BB4F84600401EA4F84600781C05D03C
:102CF000FEF724FAA0EB0B00B8425ED2E08F00286A
:102D0000D2D1B4F846000028CED15FE068E010B11F
:102D1000E08F012853D1216815F8010B0873E08F6B
:102D2000401EE0874BE000BFB8F1000F16D0E08FE7
:102D3000A0B120688168890710D5E18F012905D9E4
:102D400035F8021BC160E08F801E04E015F8011BFE
:102D50000173E08F401EE0874FF00008B4F8460092
:102D600018B320688168C9071FD0B4F8461001293C
:102D700011D9C0682AF8020BB4F84600801EA4F8E6
:102D80004600B4F8460001280DD82068416841F497
:102D90008051416007E0017B0AF8011BB4F846004E
:102DA000401EA4F846004FF00108781C07D0FEF73B
:102DB000C5F9A0EB0B00B84201D3032611E0E08F68
:102DC0000028B1D1B4F846000028ADD15A463946A2
:102DD000204600F0F8FB08B120202066206E00B1EC
:102DE0000126012084F85D000021304684F85C1043
:102DF00008E704284FF0E020016903D021F0040126
:102E00000161704741F00401FAE7401EB0F1807F94
:102E100010B501D3012010BD4FF0E02460610F21F7
:102E2000601702F0DEF90020A0610721216110BDCA
:102E30007047000070B501680446C8690A688B686D
:102E400010F00F0F5CD003F0010502F490762E43D2
:102E500069D0C60707D0D60505D501260E62E16EFA
:102E600041F00101E166810708D5D90706D026683F
:102E700002213162E16E41F00401E166410708D5AB
:102E8000D90706D0236804211962E16E41F00201DE
:102E9000E16601070AD502F02001294306D0236824
:102EA00008211962E16E41F00801E166E16E002936
:102EB00032D0800604D5900602D5204600F064FD8D
:102EC000E06E000703D420688068400625D52046C0
:102ED00000F04CFD2068816849061AD5816821F010
:102EE00040018160606EA0B12F490165606EFDF701
:102EF0002FFE002810D0606E016DBDE870400847BD
:102F0000830610D593060ED52046BDE8704000F02C
:102F10003BBD2046FFF78CFF70BD2046FFF788FFC2
:102F20000020E06670BD03062FD513062DD594F85A
:102F300069002128F6D1B4F8520020B1A068B0F59C
:102F4000805F0AD00BE0086820F0800008602068ED
:102F5000016841F04001016070BD206960B1E06C22
:102F6000411CE16421680078C1F82800B4F85200DF
:102F7000401EA4F8520070BDE06C0088C0F3080049
:102F80008862E06C801CE064F0E74006F3D55006F0
:102F9000F1D50B682022204623F040030B6084F813
:102FA000692000F0FEF870BD5939000810B5040022
:102FB00003D094F8690010B107E0012010BD002093
:102FC00084F86800204600F027F8242084F869007F
:102FD0002068016821F001010160204600F010FD29
:102FE0000128EBD0606A10B1204600F031FC206867
:102FF000416821F4904141602068816821F02A01F4
:1030000081602068016841F0010101602046BDE84F
:10301000104000F081BC000010B5006886B0104977
:1030200088421BD10F48016841F4003101600068FB
:103030000221012200F400300590602003230724C0
:103040008DE81F0008486946FDF782FF0022262010
:103050001146FEF7E3F82620FEF7D3F806B010BDC0
:103060000044004040380240000C024010B590F887
:103070006A30202B3FD1C9B1C2B190F86830012B22
:1030800039D083680124416580F86840A0F8582051
:10309000A0F85A20B3F5805F4FF0FF0108D04FF041
:1030A0007F0253B1B3F1805F0CD011E0012010BD5D
:1030B000026922B940F2FF1101E0036933B9A0F8B7
:1030C0005C1005E0016909B13F21F8E7A0F85C2038
:1030D00000212222C16680F86A2080F86810016809
:1030E0008A6842F001028A600068016841F49071C8
:1030F0000160002010BD022010BD000070B5006806
:103100001349884223D11348417800291FD1124B1B
:103110000024027822B94D1C5C54E9B26429FAD328
:103120000C49891C09780D2903D09954541C04704A
:1031300005E0047001214170406802F041FF05493B
:103140000122BDE870400548891CFFF78FBF70BDA4
:1031500000440040D4010120543C01208803012098
:1031600090F86930202B1AD1B9B1B2B190F868301B
:10317000012B14D0C1640021A0F850202123A0F815
:103180005220C16680F8693080F8681000680168D4
:1031900041F080010160002070470120704702204B
:1031A00070477047FEE70000032010B502F050FEA4
:1031B00002F0E0FF02F092FF002002F0C3FA401C90
:1031C00019D00121084602F06BFC012002F02EFC10
:1031D00002F07CFF0B4802F073F90A48083802F04D
:1031E00079FA0948002102F003FF064910394860C6
:1031F00028B1002010BD032002F03EFEFEE74FF094
:10320000FF3010BD20020120F8740008064800219C
:1032100010B502F0EDFE0549486008B1002010BD70
:103220004FF0FF3010BD0000E8740008D401012009
:103230001C4D4FF480761C4C1C4F00221A49722002
:103240001C3102F0F9FC00227220114602F006FD4A
:10325000002002F0B7FB00210F2002F076FB28428D
:103260002060F8D02088C00519D5002002F058FC55
:103270000220FDF77DFB0020FDF788FB00210F20D9
:1032800002F063FB0006F9D5002132460F2002F060
:103290009CFC802200210F2002F097FCCDE73A46EB
:1032A000F8E7000000910524100201200090052499
:1032B0007CB5114801240F4D00218022E123C0E993
:1032C0000054048214048DF800108DF801206A4621
:1032D0008DF802308DF804108DF803108DF805106C
:1032E000C0E90521C0E90714FDF750FC002800D013
:1032F000FEE77CBD00800240DC0201202DE9F04F9A
:10330000534887B0016841F004010160016801F091
:1033100004010591016841F080010160016801F03C
:1033200080010591016841F001010160016801F02F
:1033300001010591016841F002010160016801F09D
:1033400002010591016841F008010160016801F086
:1033500008010591016841F040010160006844F2F4
:1033600081050022294600F0400005903948FDF70C
:10337000E0FEDFF8E4A04FF48048012241465046C9
:10338000FDF7D7FEDFF8D4B0002240215846FDF704
:10339000D0FE4FF400792F4801224946FDF7C9FEBF
:1033A0002F4E4FF40050002469460294CDE90006E8
:1033B0002C48FDF7CDFD01270095CDE90174254886
:1033C00069460394FDF7C4FD02256946E801CDE98D
:1033D00000050320CDE90240072004905046FDF788
:1033E000B7FDCDE90245CDE9008769465046FDF7B6
:1033F000AFFDA8036946CDE9000650460295FDF7EA
:10340000A7FD40200090CDE9017469465846039419
:10341000FDF79EFD80206946CDE9000458460294E0
:10342000FDF796FD10206946CDE900060948029493
:10343000FDF78EFD01A8CDF80090112180E8320043
:1034400004486946FDF784FD07B0BDE8F08F000031
:103450003038024000040240000C024000180240D4
:10346000000011100008024070B510484FF4E064ED
:103470000D4E002100F1140C2023C0E90214721536
:1034800001618CE80E000724016241624FF48275ED
:10349000C0E90A1401634163C0E90065FFF753FA0C
:1034A000002800D0FEE770BD003001402403012059
:1034B0000C48002110B50A4C0C224FF4E133046093
:1034C000C0E90131C160C0E904128161C1610162DA
:1034D0004162FFF76BFD002800D0FEE710BD000041
:1034E000004400408803012009490022094810B522
:1034F00000F05FFE0849074801F074F807490548E5
:1035000000F0A4FCBDE81040024801F0B9B800008A
:10351000900101203024012034010120800101208C
:10352000FEE700000148FEF737B8000054360120DE
:103530002DE9F84F0F4606688246C1EBC70100EB44
:103540008105D5E91312286C38358C1AA04200D2B7
:103550000446E01C06EB4719C11700EB91704FEAD7
:10356000A00819E0AA68441AA24200D21446E01C3E
:10357000A3B2C117FAB200EB91704FEAA0089AF813
:10358000100000903046E96801F014FEE86820441D
:10359000E860A8692044A861D9F8180981B24145BA
:1035A00005D9D5E90501814201D20028DAD1002CE4
:1035B00006DCD6F834180120B8408143C6F8341828
:1035C0000020BDE8F88FF8B515460E4604460B46B8
:1035D0004FF4C0510092002200F019F888B900227F
:1035E000334680212046009500F061F848B900225A
:1035F00033464FF4C0612046009500F008F80028DB
:1036000004D0206E40F0200020660320F8BD2DE994
:10361000F8434FF4C0681D4617460E46DDF820906B
:1036200004463DE0464505D127B9007B8DF80000F2
:103630009DF80000681C33D02DB1FDF77FFDA0EB95
:103640000900A8422CD32068416821F0E0014160C4
:103650006068B0F5827F0BD1A068B0F5004F02D052
:10366000B0F5806F04D12068016821F0400101604D
:10367000A06AB0F5005F0AD120684DF6FF720168BC
:10368000114001602068016841F40051016001218E
:1036900084F85D10002084F85C000320BDE8F88306
:1036A000206881683140B942BCD10020F6E72DE99D
:1036B000F0411D4616460F460446DDF8188035E0F9
:1036C000681C33D02DB1FDF739FDA0EB0800A842EE
:1036D0002CD32068416821F0E00141606068B0F5BA
:1036E000827F0BD1A068B0F5004F02D0B0F5806F9B
:1036F00004D12068016821F040010160A06AB0F5A2
:10370000005F0AD120684DF6FF7201681140016028
:103710002068016841F400510160012184F85D10C6
:10372000002084F85C000320BDE8F08120688068F8
:103730003840B042C4D10020F6E7FDF71BBA0000C4
:103740002B4870B5B4B0016841F080510160006849
:1037500000F0805032902748016821F4404141F444
:103760008041016000684FF4A021022400F4404031
:10377000329001209025820506260423CDE92742B8
:10378000CDE92101CDE92935CDE92B4621A8FEF768
:1037900029FF00B1FEE74FF480524FF4A0510025FD
:1037A000CDE930122DAA0F20042182E831002DA886
:1037B000FEF7F0FD00B1FEE70F4812951F9500904F
:1037C0006846FEF78DFA00B1FEE7FEF795FE4FF46E
:1037D0007A71B0FBF1F0FFF718FB0420FFF709FB4B
:1037E0000022501E1146FDF719FD34B070BD0000D7
:1037F000403802400070004080002000104A30B580
:103800001048146800210F4B44F47004146008330E
:1038100005680D4A0D4C45F0010505601960036807
:10382000051D1340074A03600C322C600568E30550
:10383000034C25F480250560803C1160236030BD79
:1038400088ED00E000380240FFFFF6FE1030002453
:1038500090F82410C90706D00168836A4A6822F4E8
:1038600000321A434A6090F82410890706D501688F
:10387000C36A4A6822F480321A434A6090F82410DE
:10388000490706D50168036B4A6822F480221A436F
:103890004A6090F82410090706D50168436B4A680E
:1038A00022F400421A434A6090F82410C90606D553
:1038B0000168836B8A6822F480521A438A6090F808
:1038C0002410890606D50168C36B8A6822F4005269
:1038D0001A438A6090F82410490611D50168036CD8
:1038E0004A6822F480121A434A60016CB1F5801FC5
:1038F00006D10168436C4A6822F4C0021A434A6048
:1039000090F82410090606D50168826C486820F4F6
:10391000002010434860704738B500250446C5664E
:10392000FDF70CFC03462068006800070BD56FF01C
:103930007E400090002220464FF4001100F08CF9E8
:1039400008B1032038BD202084F8690084F868504D
:1039500084F86A00002038BD10B5806B0021A0F803
:103960005A10A0F85210FFF763FA10BD0168202228
:103970000B6823F490730B6001688B6823F00103DC
:103980008B6080F86A20704710B590F86A10B0F824
:103990005C202229016805D0886940F00800886110
:1039A000022010BD8368B3F5805F01D1036973B154
:1039B0004B6A416D13404A1C42650B70B0F85A10B7
:1039C000491E0904090CA0F85A1008D016E04B6AE9
:1039D000416D13400B80416D891C4165EEE7016824
:1039E00020220B6823F490730B6001688B6823F02E
:1039F00001038B6080F86A20FFF780FB002010BD78
:103A00002DE9F04704468068874B884F2668D4E943
:103A10000415E2690843D6F800C0102115430022BE
:103A2000284315460CEA030C814B4CEA000CC6F8FF
:103A300000C04FF400492068D4F80CC0466826F452
:103A4000405646EA0C0646602668D4F82080A069F5
:103A5000D6F808C040EA08002CF4306C4CEA000CA0
:103A6000C6F808C02068B8420AD11B6813F00303E7
:103A700052D0012B7AD0022B76D0032B79D177E06C
:103A80006C4EB0420AD11B6813F00C036AD0042BB1
:103A90006CD0082B68D00C2B6BD169E0664EB0421D
:103AA0000AD11B6813F030035CD0102B5ED0202BA2
:103AB0005AD0302B5DD15BE0604EB0420AD11B681A
:103AC00013F0C0034ED0402B50D0802B4CD0C02BD5
:103AD0004FD14DE05A4EB0420DD11B6813F44073E4
:103AE00040D0B3F5807F41D0B3F5007F3CD0B3F533
:103AF000407F3ED13CE0534EB0420FD11B6813F4DF
:103B0000406309D0B3F5806F30D0B3F5006F2BD090
:103B1000B3F5406F2DD12BE001212AE04A4EB0428F
:103B20000DD11B6813F440531CD0B3F5805F1DD03A
:103B3000B3F5005F18D0B3F5405F1AD118E0434EDB
:103B4000B04216D11B6813F440430BD0B3F5804F3D
:103B50000CD04B4508D0B3F5404F0AD108E005E042
:103B600002E0FFE7002104E0022102E0042100E07E
:103B70000821E6694E452AD109291FD2DFE801F064
:103B80000508141E171E1E1E1A00FEF7BBFC01E0DE
:103B9000FEF7D0FC0146D4F80400490001EB5001C7
:103BA000B1FBF0F082B20AE029496068F6E7FEF75F
:103BB000D9FCEFE760684FF48031EFE70125216819
:103BC00022F00F00C2F342021043C86028E0092926
:103BD00025D2DFE801F005080B24102424241C0062
:103BE000FEF790FC09E0FEF7A5FC06E06168194AC3
:103BF00002EB51020EE0FEF7B5FC0146D4E90020CD
:103C000001EB5001B1FBF0F080B2D06008E06168D8
:103C100009EB5102B2FBF1F189B2C16000E001256C
:103C20002846BDE8F0870000F369FFEF001001406F
:103C3000903802400044004000480040004C0040E2
:103C4000005000400014014000780040007C00401B
:103C50000048E8010024F4002DE9F0419846174699
:103C60000E460446069D1DE0681C1BD02DB1FDF7D5
:103C700065FAA0EB0800A84214D321682020002296
:103C80000B6823F4D0730B6021688B6823F0010369
:103C90008B6084F8690084F86A00032084F8682047
:103CA000BDE8F0812068C06936EA000004D0002039
:103CB000B842D9D00020F3E70120F9E70148FFF727
:103CC000B9B8000088030120D0F8180220B1002103
:103CD000C0F81412084670470220704770B5D0F83B
:103CE0001842054600F031FBC4F80C02D5F8180262
:103CF00048B1D5F81C0204F50371C268D4F8040277
:103D00009047002070BD022070BD70B500250446AC
:103D1000812100F073FA0121204600F06FFA822120
:103D2000204600F06BFAD4F8180250B1D4F81C0207
:103D300004F50674406880472068FCF743FC0020C7
:103D40002060284670BD10B5D0E9864159B194F87D
:103D50000002FF2807D08B68214694F8012298477B
:103D6000FF2084F80002002010BD00000A2101801D
:103D7000004870475C0001204321018000487047E3
:103D8000AC000120432101800048704768000120F9
:103D90004321018000487047F00001202DE9F041E7
:103DA0000446007C4FF400764FF0000570B34023CA
:103DB00020460222812100F035FB402320460222CA
:103DC000012100F02FFB082320460322822100F06E
:103DD00029FB4FF40770FCF7BAFBC4F81802E8B1EE
:103DE0000746D4F81C02006880470020C7F8140278
:103DF000C7F81802207CD7F8042288B14023204657
:103E0000012100F022FB2846BDE8F0810222334662
:103E10008121204600F006FB3346CFE70125F2E77B
:103E20003346ECE710B5D0F8181269B1027C002ACD
:103E3000D1F8042205D04023012100F006FB002028
:103E400010BD4FF40073F7E7022010BD00290246B1
:103E50004FF0020003D04FF00000C2F81C12704770
:103E6000D0F81802C0F8041200207047D0F81802E9
:103E7000C0F81022C0F808120020704770B506463E
:103E800008780C4610F06001D6F8185222D020298C
:103E900028D1E288B2B1000608D5D6F81C0229461E
:103EA000836860789847E288294618E06078294658
:103EB00085F80002A07985F801023046E28800F01A
:103EC00037F80FE0D6F81C0200222146836860789C
:103ED000984707E060780A2804D103490122304658
:103EE00000F040F8002070BD5800012010B5D0F857
:103EF000142252689047002010BD13460A46002144
:103F000010B500F0A2FA002010BD13460A460021A9
:103F100010B500F043FB002010BD10B58021044611
:103F200000F013FB2046BDE81040002100F00DBB5F
:103F300010B5C0F808210323C0F8F4311346C0F8C7
:103F40000C210A46002100F080FA002010BD052156
:103F5000002310B51A46C0F8F411194600F075FA9E
:103F6000002010BD10B582610223C0F8F431134661
:103F7000C2610A46002100F011FB002010BD04219F
:103F8000002310B51A46C0F8F411194600F006FBDC
:103F9000002010BD04A00A46024910B500F0E5F863
:103FA000004810BD543A012043444320436F6E66DD
:103FB000696700001220088000487047B4010120A2
:103FC00004A00A46024910B500F0CFF8004810BD21
:103FD000543A012043444320496E7465726661631C
:103FE000650000000420088000487047B0010120EF
:103FF00004A00A46024910B500F0B7F8004810BD09
:10400000543A012053544D6963726F656C65637453
:10401000726F6E696373000004A00A46024910B50E
:1040200000F0A3F8004810BD543A012053544D331A
:1040300032205669727475616C20436F6D506F72D7
:104040007400000004A00A46024910B500F08DF883
:10405000004810BD543A012030303030303030301C
:1040600030303141000000000C20088000487047CB
:10407000C8010120F8B5044648880D46010A062902
:104080004CD006DC01290DD0022910D003294FD1D4
:104090001BE007294AD00F294AD1D4F81012207CFE
:1040A000CA6937E0D4F81012207C0A6832E0207C1C
:1040B00002260028D4F8140205D0C16A6846884751
:1040C0000146467041E0816AF8E7C0B206282FD267
:1040D000DFE800F003080D12171CD4F81012207C42
:1040E0004A6817E0D4F81012207C8A6812E0D4F8ED
:1040F0001012207CCA680DE0D4F81012207C0A69E6
:1041000008E0D4F81012207C4A6903E0D4F81012B9
:10411000207C8A6969469047014616E0207C38B9C0
:10412000D4F81402416B68468847F5E7207C20B13B
:1041300029462046FFF7F1FEF8BDD4F81402016BC2
:1041400068468847014607204870BDF800000028EF
:10415000F2D0EA88002AEFD0824200D902462046F7
:10416000ADF80020FFF7FEFEF8BDF0B500284FF0D7
:1041700000041DD00346254602E06D1C5B1CEDB219
:104180001E78002EF9D1022606EB45071780631C26
:10419000032500260F55A21CCD5406E0541C8B5459
:1041A000E2B2531C401C8E54DAB20378002BF5D1D6
:1041B000F0BD10B580B1D0F8143213B10023C0F8AF
:1041C000143209B1C0F810120121027080F8FC11FC
:1041D00000F0C0F8002010BD022010BD10B5D0F8CE
:1041E00020020024FDF707F930B1012801D0022890
:1041F00001D0022400E00124204610BD10B5D0F803
:1042000020020024FDF7D5F830B1012801D00228A2
:1042100001D0022400E00124204610BD2DE9F04128
:104220001746044641B1D4F8140242698AB394F89F
:10423000FC01032842D043E0D4F8F411002504F136
:104240001400022933D1D0E902639E4207D9F31A40
:1042500039469AB283602046FFF757FE12E0406865
:10426000B0FBF3F103FB1101A1B9984212D3D4F8CA
:10427000F81188420ED2002220461146FFF745FE73
:10428000C4F8F85100231A461946204600F0DDF81C
:104290000DE012E0D4F81402C16829B194F8FC01D1
:1042A000032801D1204688472046FFF750FE94F8A6
:1042B0000002012804D184F8005201E02046904712
:1042C0000020BDE8F08170B51546044641B1D4F830
:1042D000140282693AB394F8FC01032824D025E043
:1042E000D4F8F41104F5827003291FD1D0E902211A
:1042F0008A420BD9531A83600846834200D303468F
:1043000029469AB22046FFF7F8FD0FE0D4F81402D0
:10431000016929B194F8FC01032801D1204688479E
:104320002046FFF72CFE01E020469047002070BD9C
:104330000020704710B5012180F8FC11D0F814223C
:10434000017952689047002010BDD0F82002FDF797
:104350007AB8000070B5017800292CD117490022E5
:10436000022306254FF0A044C1F8FC03C0F8201238
:104370000120C1E90332C1E90523CA610A624A6228
:10438000C1E90B02C1E900450846FDF7ABFB20B1CE
:104390000BA040F2511100F023FF08488021FCF7E8
:1043A000C5FF064840220021FCF7C4FF03488022D5
:1043B0000121FCF7BFFF002070BD00005436012032
:1043C0005254455C4465766963655C53544D3332A1
:1043D000463734365A4754785C53544375626547C0
:1043E000656E6572617465645C5372635C7573625B
:1043F000645F636F6E662E6300000000D0F82022B9
:1044000001F07F000B06C0EBC00002EB800002D57C
:1044100090F83A00704790F8FA0170470020704712
:104420000020704770B51D46D0F8200200241346C6
:104430002A46FDF712F830B1012801D0022801D038
:10444000022400E00124204670BD10B5D0F82002FF
:104450000024FDF72DF830B1012801D0022801D049
:10446000022400E00124204610BD70B5002204465D
:1044700040231146FFF7D6FF4025204600222B4659
:104480008021C4F81051FFF7CDFFD4F818020121A4
:10449000256284F8FC1130B1D4F8141220794A68EE
:1044A000C1B220469047002070BD90F8FD1180F801
:1044B000FC110020704710B590F8FC11032904D1BD
:1044C000D0F81412C96901B18847002010BD0174E9
:1044D0000020704710B5D0F820020024FDF7BAFB89
:1044E00030B1012801D0022801D0022400E00124CB
:1044F000204610BD70B5044600F50270054600F078
:104500005DF8B4F80E32012194F8080210F01F0291
:10451000C4E97D130AD0012A0DD0022A10D000F080
:104520008001204600F011F8002070BD2946204689
:1045300000F0ABF8F8E72946204600F08EF9F3E7E3
:104540002946204600F01AF9EEE710B5D0F820020F
:104550000024FCF7CFFF30B1012801D0022801D0A0
:10456000022400E00124204610BD10B5D0F820023E
:104570000024FDF788FB30B1012801D0022801D0CA
:10458000022400E00124204610BD90F8FC21042103
:1045900080F8FD2180F8FC110020704710B5D0F89C
:1045A00020020024FCF7D6FF30B1012801D00228F8
:1045B00001D0022400E00124204610BD0A780270D8
:1045C0004A784270CB788A7802EB032242804B799A
:1045D0000A7902EB032282808A79C97902EB0121F0
:1045E000C180704702464FF0000011B1C2F81412AA
:1045F00070470220704710B5D0F8142202241AB177
:104600001268904700B90024204610BD70B51B4DBC
:10461000044688780E46C1B20129297028D894F83A
:10462000FC01022802D0032822D105E099B1616083
:10463000032084F8FC0109E091B1606888420AD047
:10464000C1B22046FFF752FC297861602046FFF78F
:10465000D2FF02280CD02046BDE87040FFF78FBC87
:104660000220616084F8FC012046FFF73FFCF2E77E
:1046700031462046BDE87040FFF74FBC5500012091
:1046800010B5FFF772FF002010BD2DE9F0414B7807
:104690000022012516460A2B43D2DFE803F03C58DE
:1046A0004251420805422A27FFF7E4FC63E0044632
:1046B0008888C8B9C888B8B98A7894F8FC0102F02B
:1046C0007F07032810D03946204684F8FE71FFF793
:1046D00001FF2046FFF753FC1FB1022084F8FC01C4
:1046E00049E084F8FC5146E020461AE0FFF78EFFCF
:1046F00041E0CB88012B14D190F8FC31022B02D081
:10470000032B0ED104E000F108018260012214E0C5
:104710000122011D11E090F8FC21022A04D0032A95
:1047200002D0FFF7FAFB26E0D0F80412C56009B109
:104730000321C160022200F10C01FFF713FC1AE013
:104740004A880446012A16D1C4F804520BE00446F4
:1047500090F8FC01022801D00328C5D1488801281F
:1047600009D1C4F80422D4F8140282682046904784
:104770002046FFF704FC3046BDE8F08170B50D46D9
:104780000978044600262879C1F34112012AC1B2F2
:1047900006D06878A0B301281FD003283FD107E0D6
:1047A000D4F814022946826820469047002070BD44
:1047B00094F8FC01022817D003282CD1688828B966
:1047C00021B1802902D02046FFF7BFFED4F81402A1
:1047D000294682682046904713E094F8FC0102289D
:1047E00002D0032817D103E0C9B180291BD116E0FC
:1047F0006888A0B9480604D02046FFF7EFFCE5E73B
:1048000003E02046FFF7BBFB09E094F8FC01022817
:1048100007D003280BD029462046FFF77EFB304601
:1048200070BD4806FBD02046FFF78FFEF7E708066D
:1048300001F07F0004EB001501D5143501E005F50A
:1048400082752046FFF7DAFD00B1012029460222D9
:1048500028602046FFF786FBE1E770B5054690F833
:10486000FC010C4603280DD1207901280AD8D5F87F
:104870001402826828469047E08830B92846FFF73E
:104880007EFB02E02846FFF748FB002070BD0000D9
:1048900070B54C7801220D781C4B012CD0F81C48C7
:1048A00002FA05F218D044EA0242C0F81C280A783D
:1048B00000EB4210D0F8002B12040BD40A89CC78FC
:1048C000D0F8001BC2F30A02114343EA84431943A0
:1048D000C0F8001B002070BD92B21443C0F81C4801
:1048E0000A7800EB4210D0F800492404F2D40C8975
:1048F000CD78D0F80019C4F30A06AC04314344EA79
:10490000825211431943C0F80019E3E700800010F8
:10491000D0F800196FF30A01C0F80019D0F8081890
:10492000C1F34101022905D1D0F8001941F003017A
:10493000C0F80019D0F8041841F48071C0F80418C8
:104940000020704770B504460699049D0D98012912
:104950000CD0E06840F04000E060204600F02AF80B
:104960004FF48030A063012D17D01EE0A26B012808
:104970000F4922F48030A063E06800EA0100E060A3
:10498000E06820F44010E06003D1E06840F480105B
:10499000E060204600F00EF8E5E7A06840F0060071
:1049A000A060A06840F02000A060002070BD000062
:1049B000BFFFBDFF0C49012202E0521C8A420BD806
:1049C0000369002BF9DA0369012243F00103036153
:1049D00004E0521C8A4201D9032070470369DB07B7
:1049E000F7D1002070470000400D030010B54B7850
:1049F00001220C78012B02FA04F3D0F83C4816D0BF
:104A000024EA0343C0F83C38D0F81C380C78A240A4
:104A100023EA0242C0F81C28097800EB4110D0F8C4
:104A2000001B21F40041C0F8001B002010BD9BB208
:104A30009C43C0F83C48D0F81C380C78A24092B295
:104A40009343C0F81C38097800EB4110D0F80019E6
:104A500021F40041C0F80019E7E710B5D0F80418B8
:104A600021F00201C0F804180320FCF783F80020AD
:104A700010BD10B5D0F8041841F00201C0F80418B8
:104A80000320FCF777F8002010BD00002DE9F04767
:104A900004460E46DDE90A0ADDF83C80089FA26B59
:104AA0005FEA08014FF0000542F40011A1630BD149
:104AB000A16B21F40011A163216841F04001216044
:104AC000216841F0800121604FF00009C4F8009E88
:104AD000D4F800180128C4F8001821D003281FD0EA
:104AE000D4F8000840F0030002E000BF40F00100ED
:104AF000C4F800081021204600F0C6FA204600F055
:104B0000B3FAFF2248464FF090434FF0FF31C4F80C
:104B10001098C4F81498C4F81818C4F81C9816E033
:104B2000D4F80008002BE3D0E0E700BF04EB451108
:104B3000D1F800C9BCF1000F02DAC1F8003901E078
:104B4000C1F80009C1F81009C1F808296D1CAE426E
:104B5000ECD8002111E000BF04EB4115D5F800CBE3
:104B6000BCF1000F02DAC5F8003B01E0C5F8000B0C
:104B7000C5F8100BC5F8082B491C8E42ECD8D4F8A8
:104B80001018012F21F48071C4F810180AD11549AA
:104B9000154AC4F83018D4F830181143C4F8301846
:104BA000D4F830186FF08041A06161611FB9A0692D
:104BB00040F01000A061A069BAF1000F0B4A40EA72
:104BC0000200A06103D0A06940F00800A061B8F124
:104BD000010F03D1A06906490843A0610020BDE888
:104BE000F0870000000180000300010000383C80D5
:104BF00004000040816821F00101816000207047BD
:104C000030B50B784D784D4C012D00EB431329D076
:104C1000D3F8105B6FF31205C3F8105B0B7800EB51
:104C20004313D3F8105B2540C3F8105B4B690BB1FD
:104C30008B684B61012A0B7800EB4312D2F8103BD2
:104C400043F40023C2F8103B0A788C6800EB421250
:104C5000D2F8103BC4F3120443EA0403C2F8103B39
:104C60005BD060E04D69002DD3F810593AD06FF356
:104C70001205C3F810590B7800EB4313D3F8105901
:104C80002540C3F810594C698B689C4200D94B6190
:104C90000B7800EB4313D3F8104944F40024C3F815
:104CA00010490B784C6900EB4313C4F31205D3F899
:104CB00010492C43C3F810490B78012A00EB43122A
:104CC000D2F8003943F00443C2F800391ED04A69D3
:104CD00012B30B78D0F8341801229A401143C0F86F
:104CE000341829E02540C3F810590B7800EB431322
:104CF000D3F8104944F40024C3F810490B7800EBB2
:104D00004313D3F810496FF31204D3E70A78096903
:104D100000EB4210C0F814190EE00B78CA6800EBE3
:104D20004313C3F8142B097800EB4110D0F8001B93
:104D300041F00441C0F8001B002030BDFFFF07E038
:104D40000023C0F8103B0129D0F8101B41F40021CA
:104D5000C0F8101BD0F8101B41F01801C0F8101B50
:104D6000D0F8101B41F0C041C0F8101B05D14FF026
:104D70008021C0F8142BC0F8001B002070474A782F
:104D80000B78012A00EB43120BD0D2F8003B23F43E
:104D90000013C2F8003BCA78032A17D0022A15D0A4
:104DA0001DE0D2F8003923F40013C2F80039CA78A4
:104DB000032A01D0022A12D1097800EB4110D0F861
:104DC000001941F08051C0F8001908E0097800EBA3
:104DD0004110D0F8001B41F08051C0F8001B0020AA
:104DE00070474A780B78012A00EB431214D0D2F8AE
:104DF000003B002B05DBD2F8003B23F08043C2F8D8
:104E0000003B097800EB4110D0F8001B41F4001181
:104E1000C0F8001B00207047D2F80039002B05DBDA
:104E2000D2F8003923F08043C2F80039097800EB4A
:104E30004110D0F8001941F40011C0F80019E9E759
:104E4000F8B54B786FF060450E78834C012B00EB82
:104E500046132FD0D3F8106B6FF31206C3F8106B04
:104E60000B7800EB4313D3F8106B2640C3F8106B9C
:104E70004C69002C7ED08B680F78E618761EB6FB46
:104E8000F3F300EB4714D4F8106B9BB205EAC3456B
:104E90002E43C4F8106B8C680D785C4300EB45130F
:104EA000D3F8105BC4F312042543C3F8105B012A46
:104EB00073D0B2E04E6966B3D3F810696FF312068F
:104EC000C3F810690B7800EB4313D3F81069264040
:104ED000C3F810694E698C680B782644761EB6FBC1
:104EE000F4F400EB4313D3F8106905EAC4443443E7
:104EF000C3F810490B784C6900EB4313C4F3120557
:104F0000D3F810492C43C3F81049CB78012B16D0A5
:104F100027E0D3F810592540C3F810590B7800EB5F
:104F20004313D3F8104944F40024C3F810490B7814
:104F300000EB4313D3F810496FF312040FE00B7822
:104F400000EB4313D3F8104924F0C044C3F81049D0
:104F50000B7800EB4313D3F8104944F00054C3F826
:104F60001049012A12D0CB78012B17D04B692BB3F3
:104F70000D7800E036E0D0F834380124AC4023430B
:104F8000C0F83438CB78012B08D017E00C780B69C7
:104F900000EB4414C4F81439F4E738E0D0F80838CA
:104FA000DB050B7800EB4313D3F8004902D444F03F
:104FB000005401E044F08054C3F800490B7800EB42
:104FC0004313D3F8004944F00444C3F80049CB78B4
:104FD000012B3ED100928B8A0A78C9689BB200F0FF
:104FE000E9F836E00B788D6800EB4313D3F8104BEB
:104FF000C5F312052C43C3F8104B0B7800EB431399
:10500000D3F8104B44F40024C3F8104B4FE70B784F
:10501000CA6800EB4313C3F8142BCA78012A0FD1D6
:10502000D0F80828D2050A7800EB4212D2F8003BEB
:1050300002D443F0005301E043F08053C2F8003B38
:10504000097800EB4110D0F8001B41F00441C0F892
:10505000001B0020F8BD0000FFFF07E0816841F061
:105060000101816000207047064A10210161002182
:10507000491C914201D9032070470369DB06F7D42C
:1050800000207047400D03002023074A43EA8113A4
:1050900003610021491C914201D903207047036933
:1050A0009B06F7D400207047400D0300D0F8081885
:1050B00011F0060F4FF0000115D0D0F80828C2F308
:1050C0004102012A0CD0D0F80828C2F34102032A79
:1050D00006D0D0F80808C0F34100022802D002E050
:1050E000032100E0022108467047406900F00100FA
:1050F0007047D0F81818D0F81C08084080B27047E4
:10510000D0F81818D0F81C080840000C704710B5EB
:10511000D0F8103800EB4114D0F83428D4F808093E
:10512000CA4002F0010143EAC111084010BD00EB82
:105130004111D1F8081BD0F81408084070474169A4
:10514000806908407047D21C00F580539208002007
:1051500010B503E01C68401C41F8044B9042F9D3A1
:10516000084610BD10B5C268012922F0C042C260D5
:1051700001D021B107E0C16841F0005102E0C168EF
:1051800041F08041C1603220FBF7F4FC002010BDEB
:10519000D0F800284FF4FE6303EA011322F4FE6204
:1051A000C0F80028D0F800181943C0F800180020F3
:1051B0007047000010B5029C002C4FF000040DD188
:1051C000DB1C00EB02309A0800F5805004E000BFC1
:1051D00051F8043B0360641C9442F9D3002010BDD5
:1051E000FEE7090700284FEA116104DB00F1E02027
:1051F00080F80014704700F00F0000F1E02080F804
:10520000141D7047002202212C2010B500F0EDFC87
:105210000222BDE810402C20114600F0E6BC10B57B
:105220006D2204462E2040F6060100F0DEFC41F619
:10523000060114B140F2076201E041F20762BDE8E5
:1052400010402E2000F0B4BC002010B500F007F88C
:1052500000220421BDE81040362000F0A9BC38B57A
:105260000222044600216B46362000F08DFB0F2CF5
:1052700050D2DFE804F01008164F4F4F4F1E2D4F4D
:105280004F383D42490000208DF800009DF8010094
:1052900000F0FE0019E09DF8000000F0FC00401C4A
:1052A00004E09DF8000000F0FC00801C8DF8000078
:1052B00030E09DF8000000F0B30040F048008DF8A9
:1052C00000009DF8010040F080008DF8010021E011
:1052D0009DF8000000F0B3008DF800009DF801007B
:1052E00000F07F00F1E79DF8010040F00200ECE7DC
:1052F0009DF8010000F0FD00E7E79DF8000000F0D8
:10530000CF0040F02000D1E701208DF800000321FC
:105310008DF8011001226B460021362000F06DFC53
:105320000122362011460DF1010300F066FC38BD64
:105330000E2010B5FFF793FF06212D204FF40042F9
:1053400000F036FC012000F0ABF8BDE81040012071
:10535000FFF785BF82B204212D2010B500F028FC94
:10536000032206212D2000F040FC002206212D20E2
:1053700000F03BFC0A21BDE810402D2000F0E5BA0A
:1053800010B5002A06DA22F00042D21D22F00703EF
:10539000102203E0D21C22F003030C2213B19C184C
:1053A0008C4201D9012010BD024401448360C0E950
:1053B0000021C91AD018884202D810600246F9E7C5
:1053C0000020106010BD000005490978002905D0B3
:1053D00000684FF6FF71DFF80CC000DF7047000077
:1053E000B50201209D680008084A10B51168082917
:1053F00000D3FEE7064B03EB01130360491C18467C
:10540000116001F0D7F9012010BD0000AC020120AD
:105410007890012004490978002903D00068DFF85A
:105420000CC000DF70470000B5020120C56700080E
:10543000032000F00DBD032000F01EBDFBF720BFD0
:1054400008480068C0010BD507480068C00707D0AE
:10545000054880380068002802DA044901200870F5
:1054600070470000FCED00E0800E00E0D802012053
:105470004FF06042D36F002BFCD0036BD367D36F28
:10548000002BFCD0C07840EA0120A2F87C007047D5
:105490004FF06041CA6F002AFCD081F87C00704751
:1054A000FEF74BB9002801D000F004BE704710B5DC
:1054B00000F008FE040001D000F0F0FD204610BD11
:1054C0002DE9F05F0446774940784FF00009C8465F
:1054D0006279401E2578C6B2042D31F8127075D05D
:1054E000072D73D000217048E2798A46002A41696D
:1054F0006ED021F480014161227A4FF44031027272
:105500008346426922F440324261237A01EA034130
:105510000A4342610021042000F057FB2E203A4646
:1055200042F6040100F044FB3046FFF778FE5F4F7F
:105530005F49785D51F8202007212B2000F045FBC2
:10554000785D5C490A5C0B212B2000F04EFB5A4928
:10555000282011F80A200B2100F047FB785D5749FD
:1055600051F820200C21282000F02FFBE079544A2C
:10557000A17902EB800030F811200221272000F0F1
:1055800017FB5048042130F81620272000F010FBAC
:10559000E07908B3A078042824D02022062127200F
:1055A00000F006FB28222621272000F01EFB46499A
:1055B000E07801EB061151F820200821272000F0A7
:1055C00004FB6089A8B117E000E001E001218AE74F
:1055D000FF0841F480018EE764220621272000F0B5
:1055E000E7FAE4E710220621272000F0E1FA102272
:1055F000D9E741F24100608182B22021272000F0EA
:10560000D7FA324F0C2123203A6800F0DEFA07EB7C
:10561000460004218288232000F0CAFAA07950B104
:10562000E0792B490A5C0021212000F0DEFA4FF0DE
:1056300003094FF0010861782A0705F00F00150EE5
:1056400022794FF4402C0CEA814C284365794FF4C1
:1056500040174FF4003607EA095740EA0C00384378
:1056600006EA484108434FF0F86303EA82521043C8
:1056700040EAC56200211F2000F0A7FAA0786278F6
:10568000E1791043020442EA4132CBF80C200021B8
:10569000082000F09AFABDE8F05F422200210D20B8
:1056A00000F0A3BAB4740008F803012038740008AD
:1056B000587400087074000876740008407400087C
:1056C00084740008907400089474000878740008CA
:1056D0008074000810B502780B2104462A2000F0DF
:1056E00084FA62680021BDE810401E2000F06DBA07
:1056F00070B500210E2000F028F90446FFF7D7FE10
:10570000002205460E20114600F05FFA40220021DB
:105710000D2000F06AFA094A00210F2000F055FA26
:1057200000F032FA002122460E2000F04EFA284600
:10573000FFF7B8FE02490020887670BDF8FF2724E5
:10574000F803012070B5324C054600206074A07645
:105750002083A062E0622063606300F011F92D49AC
:10576000884201D0881770BD00F0B8F90020FFF71B
:1057700076FD04220021242000F037FA1E20FFF7D6
:10578000E9FD86B2300A60720420FFF7E3FD10F0F5
:10579000FF0F08D0022212212D2000F026FA208BC4
:1057A00040F4805020830620FFF7D4FD20600720BE
:1057B000FFF7D0FD0146616016F01F00207401D193
:1057C00010202074C0B200F080F9E80706D0FFF77F
:1057D000AFFD208B40F40060208309E005213620D6
:1057E00000F0A4F820F400720521362000F0E0F962
:1057F0000120FFF734FD00220A212C2000F0F5F9EA
:105800000021042000F0A1F86061002070BD0000BC
:10581000F80301203001CADE2DE9F04100210F20FC
:1058200000F093F83F4C410405464FF0000604F1A8
:105830001C07E0613CD500210F204FF4DE4200F050
:10584000C4F9002184F82460102000F06FF8227A57
:10585000C0F309010AB901F07F012184000405D5D4
:1058600094F8240040F0010084F824002D4B02221B
:1058700000212233112000F087F828070DD594F875
:105880002200800609D4082200210F2000F09DF993
:10589000E06920F00800E061A676E16A09B13846C7
:1058A0008847607C20B1012203210D2000F09DF982
:1058B000280610D5F82200210F2000F086F92807CD
:1058C00005D5A07E18B1FFF713FF00F0A2F8A16A7A
:1058D00009B13846884715F4081F0ED000210F2063
:1058E0004FF4003200F071F9A676FFF701FF00F0E7
:1058F00090F8216B09B1384688470B4A15420FD002
:1059000000210F2000F061F9A676FFF7F1FE00F00C
:1059100080F8616B002903D03846BDE8F0410847A4
:10592000BDE8F081F80301200090052408B589B294
:105930006B4680B2022200F027F89DF801109DF816
:10594000000000EB012080B208BD38B589B26B467B
:1059500080B20024042200F017F803216846425C5C
:10596000491E02EB0424FAD5204638BD08B589B299
:105970006B4680B2012200F007F89DF8000008BDD8
:1059800000210846FFF7E1BF38B551B140F04004AF
:105990008DF800407F29C8B207D802248DF8010095
:1059A0000BE001248DF8000007E0C90940F08000F9
:1059B0008DF8010003248DF802102046694600F09E
:1059C000A7FB38BD70B50446400701D400F0DCF8F1
:1059D0004FF48075E0072A4601D04FF44072002151
:1059E0000D2000F0E5F8E00711D003210F20FFF7AC
:1059F000BDFF00070BD5FFF77BFEA00704D40021F5
:105A00002A460D2000F0D4F84FF0FF3070BD002082
:105A100070BDE0220321362010B500F0E6F8F02238
:105A20000321BDE81040362000F0DFB870B5044611
:105A30004FF00001C0074FF0260026D0FFF785FF8A
:105A400020F4705040F4A0520021262000F0BDF850
:105A500000213620FFF779FF40F4040200213620B0
:105A600000F0B3F8A0074FF4887500D50B4D28213E
:105A700036202A4600F0A9F8A0070DD52821AAB2A1
:105A80003620BDE8704000F0A0B8FFF75EFF0021AF
:105A900020F470522620F4E770BD000010010F00C2
:105AA00070B50C46054600212620FFF74EFF20F476
:105AB0007C220DB142F480220CB142F4A032BDE848
:105AC00070400021262000F080B800F01F000E2159
:105AD00040F060022B2000F088B8000010B5FFF7FE
